:020000040000fa
:080000000002040000000000f2
:020000040000fa
:10040000af5022000e7f22000e0188000000000085
:100410000c00070060982100010020001100070077
:10042000000020000000e000020032000000020096
:1004300000000000824a0200000000000040da00d4
:100440000000fe004440a900c0c820000000e000f9
:100450000300320000002000a00188004440a800f2
:100460000000060091018800800078000000eb0089
:1004700015003700e280400032a0b4009101ba00bc
:10048000e280400032a0b4009102ba00e280400055
:1004900032a0b4000002eb00472bde00f507b200eb
:1004a000602ce10004003a000059eb008301e900f0
:1004b000fdff3e00040037006128e100010032002a
:1004c0000082eb00040007001101ba000200e00006
:1004d000e8ff3a00000006003159ba008301e90044
:1004e0000c0032002159ba008301e90008003200f3
:1004f0000400e00003003a00e280400032a0b400b3
:10050000f5ff370011d9ba008301e900faff3a007c
:100510008100e800e180400032a0b4000000060045
:100520000040da000000fe00800078001104b100f5
:10053000030035009101b10001003c000050a00013
:1005400000000600800078001106b10003003500ad
:100550009101b10001003c000050a1000000060024
:10056000839f68000100e00002003d006000100071
:10057000e08018000300e00002003d00600111006f
:10058000e0811900660107004f00e00002003b0017
:1005900060001000e080180000000600f4ff2f004b
:1005a0005202370014002000500237000001be0044
:1005b000690207000470a70003f0a1006509b100fb
:1005c000160032000d0035006828e10006003500f5
:1005d000f0ff2f00f1ff27000300e00013003b00b5
:1005e0000100280000000500000040008180480054
:1005f0008502e900fcff3a0008003700f88f42004e
:1006000002003c008000eb00000005008100d100ea
:100610000080d3008502e800fcff3a000300e00000
:1006200002003b0060001000e0801800000006009f
:10063000889fbe008a9fbe00010578000100e0008f
:100640000400350008003c000000e00020003200fb
:100650000500370060001000e080180002003b0039
:1006600001f02c001a0037000004be006011b80031
:100670006b0920000982cf00020039000882cf00f8
:100680000441b000694252000e00320008003b00f5
:1006900082817100610164008904d1000884d30063
:1006a0008b05e8000442e800f9ff3a000500370036
:1006b0000804440089844c008b05e9000442e900e9
:1006c000fbff3a00390207000af0a70001f0a00082
:1006d0004f05be004f04be000000060003f0a2005c
:1006e000889fbe008a9fbe008c1f780055020700bd
:1006f0005c0233006450e1004f0032006420e100ee
:100700005200320003826c0007003b000905d00054
:100710000306d000820f54000c065d000200390071
:1007200002003200890178000306780085825500b6
:1007300004003d000003fd008103fd008502ea0086
:100740008b854200840f720002003b0060001000a5
:10075000e08018006011b8000005eb007a28e10085
:100760000a00390006007800c75ddd00f707b20017
:10077000878075002d003700828171000a017800a2
:10078000610560008180d1000080d3008502e9000e
:10079000f9ff3b00060440008784480002003b004c
:1007a00060041400e0841c000988a30007003200e4
:1007b0008a81710082817100610164008904d10025
:1007c0000884d3008b05e800170037000978a300e0
:1007d00013003a000b00e000130034008b05e90021
:1007e0000804440089844c000a4474000978a3007a
:1007f0000d003a000b00e000070034008b05e90013
:100800000804440089844c0001003a000b002000d9
:100810000978a300f7ff32000001eb000200370067
:10082000828171000a017800e00107000cf0a70046
:1008300001f0a000140237006420e10002003a0039
:10084000838f6c00140233000801be000200be005a
:100850000d023700889fbe008a9fbe008c1f780063
:10086000f8010700ff01330003866c006450e100cb
:10087000240032006420e100270032006150e100d2
:10088000220032006120e100210032008b8542000d
:10089000eb07b1000134b800003ab8000804420088
:1008a00089844a00013ab8000030b80088804000ce
:1008b00009014a0004003300000040008180480024
:1008c000020149008b05e900c909dd0083017000c0
:1008d0000100320013002000c814de004814dd00bf
:1008e0004709de001200b200c808de00088470006c
:1008f000ae01070001f0a1000cf0a70001f0a0007c
:10090000e10137006120e100e30132000801be008f
:100910000200be00f7ff37006150e100fcff3a0023
:10092000dd013700889fbe008a9fbe008c1f7800c3
:10093000c4010700cb01330003866c006450e10062
:100940002e0032006420e100330032006150e100eb
:100950002f0032006120e100310032008585550012
:10096000eb07b00009002000080420000500370054
:100970000804440089844c000a0031000603430047
:1009800087834b000001530081815b00f8ff330037
:100990000203be000800a0000804440089844c0043
:1009a000f6ff3900c639dd00830173000100320013
:1009b000130020008904d1000884d3000998a30003
:1009c000050032000800a7000300a0008904d10040
:1009d0000884d3008b05e8008904d1000884d30083
:1009e0000001eb000281d2007001070001f0a100bc
:1009f0000cf0a70001f0a000a30137006420e10083
:100a0000a50132000801be000200be00f7ff37005a
:100a10006120e100a00132006000b800f3ff370060
:100a20000000200001f82700f0ff3700040020003c
:100a30002e013700889fbe008a9fbe008c1f780061
:100a40000004be00440107000478a30026003a0019
:100a50006120e1002500320009f8a30025003a00da
:100a60006420e10021003200f507b1000508a30071
:100a70000200320000004000818048006044b8005d
:100a80000310200002002000000040008180480088
:100a90000805440089854c000a0541008b85490002
:100aa0000a0550008b855800030033000a00be0081
:100ab00002047400838474008301d1000281d30096
:100ac000830f7100f0ff3a008904d1000884d3003d
:100ad0006001490082017800c1adde00fb07b00073
:100ae00032010700680137000960a0000800be005d
:100af000650137001202200002408800f0ff2f003d
:100b0000f1ff270060013700320020006501370047
:100b10000001eb00ca0137000081eb00c80137007b
:100b20006022b800060220000000d0008180d200c0
:100b30000482d2008582d2000000a000020252008e
:100b400083825a00030031000202420083824a007d
:100b50000000a1000603e900f3ff3a0000000600d0
:100b60000c00fa00889fbe008a9fbe008c9fbe00ca
:100b7000340107000206be00840578000200be00b2
:100b8000020020001702070005003a008b02b300a4
:100b9000120020001302070001003a00f8856d00e2
:100ba0000c01be00c60007000800be009b0032001a
:100bb0000b08a3009e003a000df0a7000be0a00078
:100bc00009f0a7000bf0a00009f0a1000801be0089
:100bd000bb0007000bf0a6009500320001003c00ae
:100be0000bd0a0008acf7500b20033006000b800bf
:100bf0006250e10099003900a1003e000b28a300db
:100c0000a2003a000bf8a300060032000b58a30024
:100c1000a70032000801be00a90007000800be00be
:100c2000940032000800be00150207000004be0058
:100c3000050578000bf0a7000b30a6000bf0a10013
:100c40005b079800324f200053f3230055fe070046
:100c500005003d000800be0012002000150207003c
:100c60000004be000a05e9004a0798006150b90077
:100c70006ffe0700008fbe000c01be00f5fe0700ee
:100c80004afe0700300798000100e00002003d0026
:100c900060001000e0801800f2ff2700820f500073
:100ca000e08f580064003e000c00be003ffe0700cd
:100cb00020079800f2072000820f5000e08f5800b4
:100cc00005003c0012f82f00f3ff2f00820f5000a8
:100cd000838f580009003d000a00e0000300320045
:100ce00001003c000201ea00020578006000b80043
:100cf000200798003a079800190037003e0090003e
:100d00006100b9004afe0700809fbe000c00be00d3
:100d10004109dd004811de007208b100b101070091
:100d20000005be001e01be00cafe07004f01be0046
:100d30006afe0700809fbe000c00be000a01be00d4
:100d400066fe07001e01be00c2fe07004f01be0086
:100d500063fe07008221270013f32300bdfe070076
:100d60000005be002e0090006100b90030fe0700b3
:100d700001f0a2000c01be0059fe07000006be00f3
:100d80000800be00ed0107000c01be00b1fe070027
:100d90000a01be0052fe0700809fbe004a00070005
:100da0002e0590000af0a7000a05ea0005003700aa
:100db0000800be000801be00a6fe07000004be0039
:100dc0000c00be000801be000a00a700a1fe07003b
:100dd0000006be000a05d100f5ff3a005e01900052
:100de00002e0a600030037000001be003600070045
:100df000ccfe07000004be004f00be002602070024
:100e00000801be0093fe07003e019000a901070003
:100e1000de0590000bf0a70001f0a2004f06be0017
:100e20004f05be004f04be000080fa00000006001f
:100e300025000700f9ff3700270007006000b80011
:100e40000bd0a7000bc0a0000be0a7000bc0a200b6
:100e50000bc0a70001f82700f0ff37000df8a30032
:100e6000020032001e000700190007000bf8a30063
:100e7000eaff32000b30a70001f0a200e7ff3700c5
:100e80000df8a300f9ff3a00f7ff37000801be0094
:100e90000b000700e6ff320001003c000df0a2004d
:100ea0006000b8000df0a70009000700dbff370065
:100eb0000b000700f1ff2700f0ff2f00d7ff3700de
:100ec00001000700b7fd370001f82300000005000e
:100ed00001f8270000000500200220000100370073
:100ee000100220000040880000000600889fbe001d
:100ef0008a9fbe00841f7800520007004f007800d0
:100f000011003300f0ff2f00838f6c0006003b00c0
:100f1000040565000a00a7000800370009f0a600d4
:100f20001000200008003700820f5400838f5c00ff
:100f3000030039001000200001003e0000002000e6
:100f400009f0a7000000ea004f05be004f04be00f4
:100f50000000e00000000600c70ade00f107b20052
:100f6000f50fb20008003200e1cf4200020032006b
:100f70000170a00024000500810f70000100320004
:100f80000408050044000500810f700002003a00cb
:100f9000140005008502e9000000400081c04800ff
:100fa000fcff3b000170a000240005008100200030
:100fb000618055000b003d000b00200061fe2f00fa
:100fc0000100e1001d0034008281710061016400b4
:100fd0008904d1000884d3000000e800faff3a0039
:100fe00071002000610064000300700002006000d6
:100ff0000900320061044400e0844c000988a50027
:10100000050032008b05e8006808e10002003a00a4
:101010008904d1000884d300f20f20000258e100b7
:1010200005003d00c75ddd00f907b200898075004d
:1010300008007800000006000bf827008b007800fd
:10104000000005000004be00c3ff07000003be004f
:101050000405be000200be00bfff0700844f7500fc
:10106000000006000200be006450e10005003600ea
:101070006420e100020036000968a30001003a0084
:101080000800be000160a0004f0678004f05be00ba
:101090004f04be0000000600f0ff2f00f1ff270004
:1010a000f9ff3700889fbe008a9fbe008c9fbe005c
:1010b0000206780001f0a7000cf0a0000004be00ba
:1010c000a5ff07000800be006420e100070039000a
:1010d00002003a00f1ff2700f0ff2f000160a0009e
:1010e00012022000024088005100370009f0a100e0
:1010f0000800be000200200003f8230027fd0700bf
:10110000f4ff3c000800be0002002000039823000a
:1011100024fd07000800be0030003500020020005a
:1011200003f023001dfd070005003c000800be0081
:101130000801be00c7fd07000005be000e00370015
:101140000c10a2000000200001f823000801be00de
:1011500062fd07000200200003f02300bdfd070030
:101160000005be0033fe07000200200003002c0033
:10117000b8fd07000004be000a00be00b2d028007f
:10118000130b2c0056fd07000a01be00b1fd07003d
:10119000020f2500330b240051fd0700809fbe0085
:1011a0000a00be005206220013f02b00a9fd070022
:1011b000b2662100f3f6230049fd07000a01be00d4
:1011c000a4fd07004f01be00d6fd07000801be00c8
:1011d000a0fd07000801be0041fd07000c00a700ac
:1011e00007003700b2fd200093fc23000c10a7007d
:1011f0003bfd07000cf0a70001f0a2000c00370037
:101200000cf0a7000200370001f0a2000400370034
:10121000b2fd2000930424000c10a6000300370048
:10122000b2fd200093fc23000c10a7002cfd07004a
:101230004f06be004f05be004f04be000000060072
:10124000889fbe008a9fbe008c9fbe0082057800ea
:101250000004be0040ff07000800be006420e1005b
:101260000700390002003a00f1ff2700f0ff2f00cd
:101270000160a000120220000240880055003700e3
:101280006120e10003003a000b00a70001f82300f1
:101290005000370001f0a1000200210093642400f7
:1012a000c0fc07000800be0004003500b2fd2000ad
:1012b000930c24005a0107000004be000005eb0057
:1012c0000b00a6004f0dde0001f0a1000004be00df
:1012d00032982f0023ea23005efd07000001eb0097
:1012e00003f023000b00a70003f82300fcfc070019
:1012f000aefc07000000a7000a00a200ccfc07001b
:101300000b00e000030032000200200003f0230085
:10131000f2fc070001f0a2000006be00020020005f
:10132000930424004bfd07000801be00ecfc0700fd
:10133000809fbe000c00be0022a22a00d3a723007b
:1013400044fd07004f01be00e5fc07000004be009d
:1013500001f0a100020020000398230091fc070087
:101360000800be00190035000001be0039fd07006d
:101370000006be00b2c52900e362230035fd070068
:1013800022222b00f3942b00d5fc07000c01be0099
:1013900030fd0700e273280083c02300d0fc070063
:1013a0000c01be002bfd070042aa2a00a3e22b007d
:1013b000cbfc07000c01be0026fd07000801be00a3
:1013c00024fd07000801be00c5fc07000a00a700b5
:1013d00001f0a2004f06be004f05be004f04be0044
:1013e00000000600889fbe008a9fbe000003be006a
:1013f000d9fe070085057800828152000200200096
:101400006220e10004003a00f307b1000400350057
:101410007718e100040035000600be001400370014
:101420006000b8000f003700f50f2000faff2f0012
:101430008502d1000a85d3008301e900fcff3b004f
:101440008184620000046500890f7400f2ff32009d
:101450008582ea000a85ea00818462000004650052
:10146000d2fe070007f0a70001f0a0000081eb000a
:101470000200e0004f05be004f04be000000060061
:101480000003be00b4fe07006220e100020032004b
:101490000600be0005000500e507b100f107b20037
:1014a00004f023008480700007f0a70001f0a00082
:1014b000240005000003be00a7fe07006220e10033
:1014c000020032000600be00000006008502410056
:1014d000e30f20000328e10005003c00a3fe2f00dd
:1014e0000328e10007003d0005002000010037004f
:1014f000f50f200020022000004088006000b800a6
:1015000008003700130020008381520005003d00d1
:101510008100d1000080d3008301e800fcff3a0085
:1015200005002000c72add00f107b20085807000a9
:1015300007f0a70001f0a00000000600889fbe0091
:101540008a9fbe008c9fbe00cdff070085047800f7
:101550000005be006420e10049003e006220e10079
:1015600003003200090035000bf8a30044003200ec
:101570000bf8a30008003200100220000040880091
:10158000f0ff2f00f1ff27003d00370001f82f008a
:10159000000020003a0037003d0007004ffc070024
:1015a0000006be000a00be00324f200053f32300a5
:1015b000fafb0700060034000c00be0034000700f0
:1015c00046fc07000006be000a00be00020037000d
:1015d0008904e9000c00be002d0007009dfc0700f7
:1015e0002b0007003efc07000001be000c00be00ff
:1015f000ccfc07000005be000001be0095fc070002
:101600000006be00a2f32300430d2c0034fc0700ab
:10161000809fbe000c00be00d2e32700d3f02b0059
:101620008cfc07004f01be00befc07000006be0098
:101630000a01be0087fc07000a01be0028fc070063
:101640000006be006148b900f9fb07000005be00b6
:1016500032082800e3952b007efc07000c01be0039
:101660001ffc07000006be000a00be0002002800a2
:1016700013f3230077fc07000c01be0018fc0700e1
:101680004f06be004f05be004f04be00000006001e
:1016900003f0230002000500889fbe008a9fbe0061
:1016a0008c9fbe000004be002bfe07000800be0099
:1016b0006420e10048003e005500320072212700fe
:1016c000132b2400b5fb070047003c000800be00b8
:1016d000c2ec2800e32c2c00b2fb070047003500c9
:1016e0000800be0001f0a100020020000338230022
:1016f000acfb0700430035000800be00b2a32a007f
:1017000083fb230053fc07000200200003f02300aa
:1017100001f0a70003f0a000f1fb0700a3fb070006
:101720000005be00c2fb070001f0a2000006be00db
:101730000200280013f3230046fc07000801be0046
:10174000e7fb0700809fbe000c00be0032082800a7
:10175000e3952b003ffc07004f01be00e0fb0700b4
:101760000006be000001be003afc0700809fbe00dc
:101770004241250083b8230036fc07000200200008
:1017800003e82300d6fb07000c01be0031fc070074
:101790000006be004f00be00f2f92b00c3d42300a8
:1017a0002cfc07000200200003f02300ccfb070004
:1017b0000c01be00c9fb07000001be000c00be000a
:1017c00058fc07000200200003f02300c4fb0700c0
:1017d0006101450037ff07004f06be004f05be0000
:1017e0004f04be000000060001f8270000002000a2
:1017f0002202200002408800f7ff37006000b80096
:10180000fbff370001f8230000002000f2ff370043
:1018100009f8a300f0ff32006000b800eeff3700c7
:101820000400200000003700889fbe008a9fbe0091
:101830008c1f78004f26dd0002fe070009fe3300f2
:101840006120e100430032006250e10041003e00af
:101850003e0039006420e1003c0032000582550062
:101860000f003b000402e80038003a00800f5300ec
:10187000818f5b00350034000800be0003f0a1003a
:1018800001f0a60003f0a0000cf0a70094fb0700f5
:10189000fdfd37000603430087834b000c464600de
:1018a0000005530081855b00020033000a03be007f
:1018b0000c00a0000402e900f6ff3b00850578005b
:1018c0000602430087824b0004003a006000b80023
:1018d00009f0a70001f0a000ebfd37000002520064
:1018e00081825a000704e00004003300060343002d
:1018f00087834b008b05e900faff37000905780064
:101900000604be000203be006011b800a7fd070078
:10191000e00f5200e08f5a000700350002003c0043
:101920000c08a300040032000601be0003f0a00072
:101930000cf0a7006afb07000a85680001f0a1000f
:101940000af0a70001f0a000cffd37000800be009c
:10195000cdfd3700100220000cf0a60000408800ea
:10196000cdfd3700800078003004e000feff3a0033
:10197000010050000000e9000000060000037800ac
:1019800080027800020278008001eb000800370036
:101990000402e90063c07800805a78008301e800ff
:1019a0000004e00002003a008000eb00060037006f
:1019b000828f5100f6ff3a00fbff37000040eb003a
:1019c00080f07a008100e800848f5000fbff3a002d
:1019d00006007800000006008001eb0002003700de
:1019e000817178008301e800828f5100fcff3a008a
:0419f00000000600ed
:020000040000fa
:020000040001f9
:0457f800defa0000d5
:020000040000fa
:020000040001f9
:0457fc007f1f00000b
:020000040000fa
:100008009002000086630000ee6300005664000062
:10001800be64000090020000900200009002000000
:10002800900200009002000090020000da4d0000eb
:100038009002000090020000900200009a5a00000e
:10004800b85a00009002000090020000765c0000a0
:10005800900200003c5c000090020000900200004a
:100068009002000090020000900200009002000040
:100078009002000090020000900200009002000030
:100088009002000090020000900200009002000020
:100098009002000090020000900200009002000010
:1000a8009002000090020000900200009002000000
:1000b80090020000900200009002000090020000f0
:1000c80090020000900200009002000090020000e0
:1000d80090020000900200009002000090020000d0
:1000e80090020000900200009002000090020000c0
:1000f80090020000900200009002000090020000b0
:10010800900200009002000090020000900200009f
:10011800900200009002000090020000900200008f
:10012800900200009002000090020000900200007f
:10013800900200009002000090020000900200006f
:10014800900200009002000090020000900200005f
:10015800900200009002000090020000900200004f
:10016800900200009002000090020000900200003f
:10017800900200009002000090020000900200002f
:10018800900200009002000090020000900200001f
:10019800900200009002000090020000900200000f
:1001a80090020000900200009002000090020000ff
:1001b80090020000900200009002000090020000ef
:1001c80090020000900200009002000090020000df
:1001d80090020000900200009002000090020000cf
:1001e80090020000900200009002000090020000bf
:0801f8009002000090020000db
:020000040000fa
:100208009002000086630000ee6300005664000060
:10021800be640000900200009002000090020000fe
:10022800900200009002000090020000da4d0000e9
:100238009002000090020000900200009a5a00000c
:10024800b85a00009002000090020000765c00009e
:10025800900200003c5c0000900200009002000048
:10026800900200009002000090020000900200003e
:10027800900200009002000090020000900200002e
:10028800900200009002000090020000900200001e
:10029800900200009002000090020000900200000e
:1002a80090020000900200009002000090020000fe
:1002b80090020000900200009002000090020000ee
:1002c80090020000900200009002000090020000de
:1002d80090020000900200009002000090020000ce
:1002e80090020000900200009002000090020000be
:1002f80090020000900200009002000090020000ae
:10030800900200009002000090020000900200009d
:10031800900200009002000090020000900200008d
:10032800900200009002000090020000900200007d
:10033800900200009002000090020000900200006d
:10034800900200009002000090020000900200005d
:10035800900200009002000090020000900200004d
:10036800900200009002000090020000900200003d
:10037800900200009002000090020000900200002d
:10038800900200009002000090020000900200001d
:10039800900200009002000090020000900200000d
:1003a80090020000900200009002000090020000fd
:1003b80090020000900200009002000090020000ed
:1003c80090020000900200009002000090020000dd
:1003d80090020000900200009002000090020000cd
:1003e80090020000900200009002000090020000bd
:0803f8009002000090020000d9
:020000040000fa
:1019f40000000000000000000000000000000000e3
:101a040000000000000000000000000000000000d2
:101a140000000000000000000000000000000000c2
:101a240000000000000000000000000000000000b2
:101a340000000000000000000000000000000000a2
:101a44000000000000000000000000000000000092
:101a54000000000000000000415200004543000067
:101a64004f5200004445000052200000524500003f
:101a740041440000590a0000004300004f4e00009a
:101a840046490000475500005241000054490000f7
:101a94004f4e0000204d00004f4400004520000040
:101aa400454e0000414200004c450000440a00003d
:101ab400004600004c490000474800005420000044
:101ac4004d4f000044450000204500004e410000f9
:101ad400424c0000454400000a0000004653000048
:101ae400496e0000697400002e2e00002e4600008e
:101af400414900004c0a0000004600005349000020
:101b04006e690000742e00002e2e0000444f000069
:101b14004e4500000a0000004d45000041530000fe
:101b24002a2e0000637300007600000061000000ac
:101b34004d45000041530000303100002e63000089
:101b440073760000006f0000706500006e6900008d
:101b54006e670000206e00006577000020660000bc
:101b64006972000073740000206d0000656100005c
:101b740073200000666900006c650000207400009a
:101b84006f2000007772000069740000650a00008d
:101b940000530000554d00004d300000312e000070
:101ba40063730000760000006f700000656e000033
:101bb400696e0000672000006e6500007720000059
:101bc4006e65000078740000206d000065610000ff
:101bd40073200000666900006c650000207400003a
:101be4006f2000007772000069740000650a00002d
:101bf400006f0000706500006e6900006e670000f1
:101c0400206e000065770000206e000065780000fb
:101c140074200000737500006d6d000020660000e4
:101c2400696c000065200000746f000020770000dc
:101c340072690000746500000a0000003120000091
:101c4400256400002c2000003220000025640000e0
:101c54002c20000033200000256400002c2000000c
:101c64004261000074740000202500002e31000041
:101c740066200000560a00000061000020310000c8
:101c8400206700003a200000256400000a48000094
:101c94006120000031200000673a00002025000088
:101ca400640a0000004800006172000064770000cc
:101cb4006172000065200000766500007273000008
:101cc400696f00006e2c0000256400002e250000c2
:101cd400640d00000a000000323000003a320000b7
:101ce400313a000031310000004a0000756e0000f6
:101cf4002020000035200000323000003134000084
:101d0400005300006f6600007477000061720000e9
:101d1400652000007665000072730000696f0000a2
:101d24006e2c00002573000020250000730d0000b8
:101d34000a0000004869000067680000206700008e
:101d44002061000063630000656c000065720000a0
:101d54006f6d00006574000065720000206900006a
:101d6400732000007072000065730000656e00004f
:101d7400740a000000480000696700006820000041
:101d84006720000061630000636500006c6500006b
:101d9400726f00006d650000746500007220000021
:101da40069730000204e00004f54000020700000b2
:101db40072650000736500006e7400000a00000084
:101dc400416c00006c2000004f4b00000a00000032
:101dd400526f0000636b0000657400002061000016
:101de4006e6700006c650000206100007420000034
:101df4006c610000756e000063680000205b0000e9
:101e0400646500006772000065650000735d000092
:101e14002c2500002e310000660d00000a00000091
:101e24005072000065730000737500007265000055
:101e34002061000074200000677200006f750000cc
:101e44006e640000206c000065760000656c000084
:101e5400205b0000506100005d2c0000252e000076
:101e6400306600000d0a000000500000726500009a
:101e74007373000075720000652000006174000037
:101e840020610000706f000067650000652000009d
:101e94005b500000615d00002c2500002e30000026
:101ea400660d00000a0000004d6100007869000022
:101eb4006d7500006d200000766500006c6f0000f9
:101ec4006369000074790000206100007420000040
:101ed400726f0000636b00006574000020610000f5
:101ee40078690000732000005b6d00002f73000010
:101ef4005d2c0000252e0000316600000d0a000054
:101f0400004d000061780000696d0000756d0000ef
:101f1400206100006c7400006974000075640000a6
:101f24006520000028610000636300002920000090
:101f34005b6d00005d2c0000252e00003066000063
:101f44000d0a0000004d000061780000696d00007a
:101f5400756d0000206100006c740000697400005d
:101f640075640000652000002870000072650000a0
:101f7400737300007572000065290000205b000087
:101f84006d5d00002c2500002e300000660d000061
:101f94000a000000526f0000636b000065740000cb
:101fa400206c0000617500006e6300006820000072
:101fb4005b7300005d2c0000256400002e250000ea
:101fc400640d00000a00000042750000726e0000fb
:101fd4006f750000742000006f660000206600002a
:101fe40069720000737400002073000074610000c3
:101ff40067650000206500006e670000696e0000e0
:10200400652000005b7300005d2c00002564000067
:102014002e25000030320000640d00000a0000008c
:10202400496700006e69000074740000696e000066
:102034006720000073650000636f00006e64000099
:1020440020730000746100006765000020650000d3
:102054006e670000696e0000652000006675000070
:1020640073650000205b0000735d00002c250000f8
:10207400642e000025300000326400000d0a0000c8
:102084000046000069720000696e000067200000cd
:1020940073650000636f00006e640000207300002d
:1020a4007461000067650000206500006e67000031
:1020b400696e0000652000005b7300005d2c000069
:1020c400256400002e25000030320000640d00005d
:1020d4000a00000042750000726e00006f75000077
:1020e400742000006f660000207300006563000028
:1020f4006f6e0000642000007374000061670000cc
:1021040065200000656e0000676900006e650000d0
:10211400205b0000735d00002c250000642e00008d
:1021240025300000326400000d0a00000041000068
:10213400706f0000676500006520000064650000a2
:102144007465000063740000696f00006e20000075
:102154005b7300005d2c0000256400002e25000048
:1021640030320000640d00000a0000004d690000d8
:102174006e6900006d7500006d200000766500003a
:102184006c6f000063690000747900002061000036
:10219400726f0000756e0000642000006170000022
:1021a4006f67000065650000205b0000735d000040
:1021b4002c250000642e000025300000326400004d
:1021c4000d0a00000046000069720000696e0000fc
:1021d40067200000647200006f67000075650000ee
:1021e40020700000617200006163000068750000e7
:1021f40074650000205b0000735d00002c25000066
:10220400642e000025300000326400000d0a000036
:102214000046000069720000696e0000672000003b
:102224006d610000696e00002070000061720000a2
:10223400616300006875000074650000205b0000a5
:10224400735d00002c250000642e00002530000082
:10225400326400000d0a0000005200006f630000a9
:102264006b650000742000006c6100006e64000067
:10227400696e0000672000005b7300005d2c0000a5
:10228400256400002e25000030320000640d00009b
:102294000a00000046690000727300007420000008
:1022a400656e0000676900006e6500002062000032
:1022b400757200006e6900006e67000020740000f3
:1022c400696d0000652000005b7300005d2c000058
:1022d400256400002e25000030320000640d00004b
:1022e4000a00000053650000636f00006e64000084
:1022f400206500006e670000696e00006520000024
:1023040062750000726e0000696e000067200000b4
:10231400746900006d650000205b0000735d0000bf
:102324002c250000642e00002530000032640000db
:102334000d0a000000540000696d000065200000d3
:10234400746f000020610000706f0000676500007a
:10235400652000005b7300005d2c00002564000014
:102364002e25000030320000640d00000a00000039
:10237400546f0000746100006c200000666c000063
:10238400696700006874000020740000696d000033
:10239400652000005b7300005d2c000025640000d4
:1023a4002e25000030320000640d00000a000000f9
:1023b4005b450000525200004f5200005d200000b7
:1023c40053740000616e0000203d000020250000d1
:1023d400642c000020740000696d0000652000007a
:1023e400256400002e25000030320000640d00003a
:1023f4000a0000005b450000525200004f520000ea
:102404005d200000547200006967000067650000e9
:10241400725f00006675000073650000203d0000d7
:1024240020250000642c000020740000696d000069
:1024340065200000256400002e250000640d0000c6
:102444000a000000257500002c2500003032000031
:10245400642c0000256400002c250000642c00007e
:10246400256400002c250000642c0000256c00006d
:10247400642c0000256c0000642c0000252e000054
:10248400316600002c250000642c00002564000047
:102494002c250000640d00000a0000004d2c0000f3
:1024a400256400002c250000642c00002564000035
:1024b4002c250000642c0000256c0000642c000016
:1024c400252e0000316600002c2500002e3000006f
:1024d400662c0000256400002c250000642c0000fc
:1024e400256400002c250000302e00003166000019
:1024f4000a000000000000000000000000000000ce
:1025040000000000000000000000000000000000c7
:1025140000000000000000000000000000000000b7
:1025240000000000000000000000000000000000a7
:102534000066000069720000652000005041000040
:1025440052410000312000006675000073650000f0
:102554000a000000656e0000642000006669000047
:10256400726900006e6700000a00000066690000de
:10257400726500002050000041520000413200000a
:102584002066000075730000650a00000066000004
:102594006972000065200000737400006167000028
:1025a400653200002066000075730000650a0000b3
:1025b4000066000069720000652000004f550000ad
:1025c400543100000a0000006669000072650000d2
:1025d400204f000055540000320a0000006600003d
:1025e40069720000652000004f550000543300005c
:1025f4000a000000492c00004172000065630000dd
:102604006f72000064650000722c000068760000a0
:102614002e2c0000256400002e250000642c0000f0
:10262400737600002e2c0000257300002025000086
:10263400730a0000004100005f3000005f67000083
:1026440009090000256400000a000000595f000029
:10265400305f00006709000009250000640a0000db
:10266400005a00005f3000005f67000009090000a5
:10267400256400000a000000486100005f3000008b
:102684005f67000009090000256400000a000000db
:10269400415f0000315f0000670900000925000068
:1026a400640a000000480000615f0000315f000020
:1026b4006709000009250000640a000000540000b6
:1026c400656d0000706500007261000074750000a3
:1026d400726500004f6600006673000065740000b8
:1026e40031090000256400000a0000004d6100006b
:1026f400696e0000506100007261000063680000b0
:10270400757400006554000072690000676700007a
:102714006572000048650000696700006874000085
:1027240020250000640a00000053000065630000d7
:102734006f6e0000644500006e670000696e000063
:1027440065440000656c000061790000547200006b
:1027540069670000676500007209000025640000d5
:102764000a0000004c610000756e00006368000000
:10277400706100006448000065690000676800003b
:1027840074090000256400000a000000536500007d
:1027940072690000616c00004e7500006d620000fb
:1027a4006572000009250000640a0000004f000063
:1027b400776e000065720000506800006f6e0000c4
:1027c4006509000009250000730a0000004f00009d
:1027d400776e0000657200004e6100006d650000b8
:1027e40009090000257300000a0000004861000088
:1027f400636300005072000065730000656e0000a2
:1028040074090000256400000a00000050720000f2
:102814006573000073750000726500004772000064
:102824006f7500006e64000009250000640a000052
:1028340000420000617400007465000072790000b9
:1028440009090000252e0000316600002056000012
:102854000a000000502c0000256400002c25000014
:10286400642c0000256400002c250000642c00006a
:10287400256400002c250000642c00002564000061
:102884002c250000642c0000256400002c25000089
:10289400642c0000256400002c250000642c00003a
:1028a400256400002c250000642c00002564000031
:1028b4002c250000642c0000256400002c25000059
:1028c400642c0000256400002c250000642c00000a
:1028d40000250000732c0000257300000a0000008e
:1028e4004154000045250000640a00000041000036
:1028f4005457000028250000642c000025730000b4
:10290400290a000000410000545700002825000057
:10291400642c000025640000290a0000006d0000fa
:10292400616900006e2e0000630000005b4500003a
:10293400525200004f5200005d2000002825000084
:10294400733a0000256400003a200000657200001c
:10295400726e00006f3a0000202500007329000009
:10296400204f000073630000696c00006c6100007c
:10297400746f00007220000066610000696c000042
:102984002d530000554d00004d2000006f700000d5
:10299400656e000020650000727200002c200000ab
:1029a400256400002e250000647300000a0a00005c
:1029b400005b000045520000524f0000525d0000d1
:1029c40020280000257300003a250000643a000026
:1029d40020650000727200006e6f00003a20000053
:1029e40025730000292000004f7300006369000074
:1029f4006c6c0000617400006f72000020660000bf
:102a0400616900006c2c000020250000642e000089
:102a140025640000730d00000a0a0000005b00003a
:102a240045520000524f0000525d00002028000073
:102a3400257300003a250000643a00002065000078
:102a4400727200006e6f00003a20000025730000cf
:102a540029200000416400006472000065730000d6
:102a64007320000045720000722d000053550000d1
:102a74004d4d0000206f0000706500006e200000c6
:102a840065720000722c000020250000642e0000f6
:102a940025640000730a00000a0000005b45000082
:102aa400525200004f5200005d2000002825000013
:102ab400733a0000256400003a20000065720000ab
:102ac400726e00006f3a0000202500007329000098
:102ad400204100006464000072650000737300000c
:102ae40020450000727200002c20000025640000c4
:102af4002e250000647300000d0a00000a00000087
:102b04005b450000525200004f5200005d2000005f
:102b140028250000733a0000256400003a200000d4
:102b240065720000726e00006f3a000020250000fc
:102b3400732900002053000074610000636b0000df
:102b440020450000727200006f7200002d530000d7
:102b5400554d00004d2000006f700000656e0000b0
:102b640020650000727200002c2000002564000023
:102b74002e250000647300000a0a0000005b0000b8
:102b840045520000524f0000525d00002028000012
:102b9400257300003a250000643a00002065000017
:102ba400727200006e6f00003a200000257300006e
:102bb4002920000053740000616300006b200000b2
:102bc40045720000722c000020250000642e0000d5
:102bd40025640000730d00000a0a0000005b000079
:102be40045520000524f0000525d000020280000b2
:102bf400257300003a250000643a000020650000b7
:102c0400727200006e6f00003a200000257300000d
:102c1400292000004d610000746800002045000078
:102c2400727200006f720000202d0000205300001b
:102c3400554d00004d200000666900006c650000e1
:102c4400206e00006f740000206f000070650000ab
:102c54006e650000642c000020740000696d0000a3
:102c640065200000256400002e250000640a000091
:102c74000a0000005b450000525200004f52000061
:102c84005d20000028250000733a00002564000040
:102c94003a20000065720000726e00006f3a000076
:102ca4002025000073290000205b0000455200002d
:102cb400524f0000525d0000204d0000617400007e
:102cc4006820000045720000726f0000722c000042
:102cd40020740000696d0000652000002564000078
:102ce4002e250000640d00000a0a00000000000008
:102cf4005365000072690000616c0000206e0000e2
:102d0400756d000062650000722c000025640000ef
:102d14000d0a0000004f0000776e0000657200008d
:102d2400206e0000616d0000652c0000257300001a
:102d34000d0a0000004f0000776e0000657200006d
:102d440020700000686f00006e6500002c250000f4
:102d5400730d00000a000000436f00006e6600005f
:102d6400696700007572000061740000696f0000fb
:102d74006e200000736500006c6500006374000041
:102d8400656400002c250000640d00000a000000aa
:102d9400585f0000315f0000672000002832000007
:102da40034670000292c0000256400000d0a00008f
:102db40000480000785f0000315f000067200000d9
:102dc4002838000030670000292c0000256400002a
:102dd4000d0a0000005800005f3000005f6700002b
:102de4002028000032340000672900002c25000050
:102df400640d00000a000000487800005f30000005
:102e04005f670000202800003830000067290000b8
:102e14002c250000640d00000a000000595f00002a
:102e2400305f000067200000283200003467000093
:102e3400292c0000256400000d0a0000005a00003f
:102e44005f3000005f67000020280000323400007b
:102e5400672900002c250000640d00000a00000012
:102e64004861000063630000207000007265000088
:102e7400736500006e7400002c250000640d0000d2
:102e84000a00000053650000636f00006e640000d8
:102e9400456e0000676900006e650000446500002f
:102ea4006c610000795400007269000067670000db
:102eb40065720000205b0000735d00002c2500009b
:102ec400640d00000a0000004d610000696e0000fe
:102ed40050610000726100006368000075740000b6
:102ee40065540000726900006767000065720000a5
:102ef400486500006967000068740000205b0000fa
:102f04006d5d00002c250000640d00000a00000027
:102f14004c610000756e0000636800007061000081
:102f240064480000656900006768000074200000c0
:102f34005b6d00005d2c0000256400000d0a00009c
:102f440000540000656d00007065000072610000af
:102f540074750000726500004f660000667300001f
:102f640065740000312000005b64000065670000a8
:102f74005d2c0000256400000d0a000000500000d4
:102f84007265000073730000757200006520000014
:102f9400636f0000656600006669000063690000f5
:102fa400656e000074200000233100002c34000002
:102fb40034330000333000002e370000370d00009a
:102fc4000a00000050720000657300007375000071
:102fd40072650000206300006f65000066660000f3
:102fe40069630000696500006e740000202300001e
:102ff400322c0000302e0000313900003032000045
:1030040036330000320d00000a0000005072000048
:103014006573000073750000726500002061000094
:103024007420000073650000612000006c650000de
:10303400766500006c2000005b500000615d0000bc
:103044002c3100003031000033320000350d000017
:103054000a000000536100006d7000006c65000000
:10306400732000007065000072200000736500008a
:10307400636f00006e6400002c31000030300000eb
:103084000d0a00000d0a00000073000065630000d3
:103094006f6e0000647300002c3100002f310000bb
:1030a40030300000206f00006620000073650000cf
:1030b400636f00006e6400002c5800005f61000024
:1030c400636300002c5900005f610000636300002b
:1030d4002c5a00005f610000636300002c4800006c
:1030e400585f000061630000632c00000050000082
:1030f400726500007373000075720000652c000097
:103104004b6100006c6d0000616e000020700000d7
:10311400726500007373000075720000652c000076
:103124005661000078690000732c0000416c0000b7
:103134007469000074750000646500004672000044
:103144006f6d00005072000065730000737500001d
:10315400726500002c0000004865000069670000eb
:10316400687400002c530000746100007465000052
:103174000d0a000000450000525200002025000006
:10318400640d00000a00000000950000000000002b
:103194000000000001f90000000000000000000031
:1031a40008870000040000000000000009af0000d0
:1031b40000000000010000000a1b000000000000e5
:1031c400010000000cc3000001000000000000002a
:1031d4000daf0000020000000000000010ff00001e
:1031e400000000000000000011ff000000000000cb
:1031f4000100000012ff00000000000001000000b8
:1032040018ff0000000000000100000019ff00008a
:10321400000000000100000020ff0000000000008a
:103224000000000021ff000000000000000000007a
:1032340026df0000010000000000000037730000da
:1032440000000000000000003a2500000400000017
:10325400000000003b25000000000000000000000a
:1032640029ff0000040000000000000017ff000018
:103274000000000000000000626c000061640000b7
:10328400206f0000646300007a7900007475000008
:10329400204900003243000000530000656e000026
:1032a400736f0000727300002e630000005b000067
:1032b40045520000524f0000525d000020280000db
:1032c400257300003a250000643a000020650000e0
:1032d400727200006e6f00003a2000002573000037
:1032e40029200000626c000061640000206f00006f
:1032f400646300007a7900007475000020490000be
:08330400324300000a00000042
:020000040000fa
:10480000c038220012c0b300e138220002587800fc
:10481000808f5000fdff3a008040eb00a04f220047
:1048200001487800004f2200014878000080eb002a
:104830008080eb006027890071278900a02789000c
:10484000b127890019290700c04322008001070011
:104850008000eb000004e00003003a002039220051
:104860000048eb0011002000010078000000060065
:10487000e8874700889fbe008a9fbe008c9fbe00cd
:104880008e1f7800000678000107780082f79f00ed
:1048900093f79f0040109000e0b79f007c109000bd
:1048a0008c189000101e9800211e98006e10900029
:1048b0000080ea00f0b79f006fb097000000e000b2
:1048c00007003a0012c0b300f48057000c007800d3
:1048d000cc0407000000e0007f003a007c003700b5
:1048e0006f0060007c00320012c0b300f4805700fb
:1048f0000c007800c30407000000e00076003a00d6
:1049000073003700f48057000c007800da070700c6
:10491000e24f5000720032000004e0005d003a00f7
:10492000ec109000f103b2001ff197000204e000c8
:1049300003003200e14f51005f003a0014003700dd
:10494000e88f50005c0032007c054600fc04470004
:10495000bbc0b3001a80fb00f3ee07000004780030
:104960001980fb00f0ee0700800f54004d003a0064
:104970008b45e9000a05e8008904e8000b04e00023
:104980004a003200f3ff3700b80020002100370052
:104990007fb197000100610047003a00ef8f50009f
:1049a00045003200ce589000a0c2b30080cf500026
:1049b00017003200fc0546007c0547008dc0b3009f
:1049c0009b4078009a447800a0c2b30080cf540086
:1049d0000f0032007540400080cf540007003200c5
:1049e0000180fb00d0ee0700000478000980fb0086
:1049f000cdee0700800f5400e3ff3a008d46e9003a
:104a00008b05e8000a05e8000d04e000ecff3a0021
:104a10000004eb00ce609000a0c2b30080cf500035
:104a2000250032000800e00023003a004b0220007d
:104a30008c8545004a0220000e0545003dc0b300ac
:104a40009b4078009a447800a0c2b30080cf540005
:104a5000180032007540400080cf5400070032003b
:104a60000180fb00b0ee0700000478000980fb0025
:104a7000adee0700800f54000a003a008d46e900b1
:104a80008b05e8000a05e8000d04e000090032008b
:104a9000ebff37000ff097000004e0000300320046
:104aa00005003700b8002000030037000004eb00c9
:104ab000010037000004eb00efb097008100e80030
:104ac000e1b79f000800e000050032008dff3700cd
:104ad000b801200002003700b800200089ff37002d
:104ae000080078004f0778004f06be004f05be0053
:104af0004f04be008f00b10000000600889fbe007a
:104b00008a9fbe008c9fbe008e1f78000004be00ee
:104b100002477800100678003c6090007d0020007d
:104b20000004e000590032007810900088189000ce
:104b3000101c9800211c9800190078000000e0006b
:104b400006003a0012c0b3000800be002d040700a2
:104b50000000e0000a003a00070037006f00600024
:104b60000700320012c0b3000800be002504070091
:104b70000000e00002003a00bd0120000100370003
:104b80008006eb000800be003b0707000004e000c1
:104b900002003200bd0020003c0037006000b80079
:104ba00070049800010c980018009000a800900074
:104bb00030049800410498000000eb005004980075
:104bc0006004980018019000a80190000c00780083
:104bd0008c0a07000005be00804f22001004e00090
:104be00005003200130c07000004e0000200320050
:104bf0009d0020002500370098278900a02781000c
:104c0000b1278100800f5500818f5d000d003200bb
:104c1000a04f22000048eb001c80fb001c419000cc
:104c20004811dd00000171000a00be008c28070059
:104c30000004e00001003a008d002000aa2789004e
:104c4000bb278900380890000020a100300c980094
:104c500070c7b300804f5700030032007640500009
:104c6000804f570005003a00380890000000a0006f
:104c70000010a100300c98000400370038089000a4
:104c80000000a1000010a000300c98000d0078007a
:104c90004f0778004f06be004f05be004f04be0010
:104ca00000000600f0874700889fbe008a9fbe0074
:104cb0008c9fbe008e1f7800800678000205be0023
:104cc000100678002c609000e14f50000300320085
:104cd000e34f50000a003a001200370080ff200026
:104ce00001002000b0b79f00c1b79f00f0ff2f0068
:104cf00001002000d0b79f00e1b79f0011003700ee
:104d000080ff2f0001002000b0b79f00c1b79f00b7
:104d1000f0ff2f0001002000d0b79f00e1b79f00f7
:104d20000800370080ff2f00f1ff2000b0b79f0080
:104d3000c1b79f00f0ff2f00f1ff2000d0b79f0008
:104d4000e1b79f000a04be008040eb00c1e79f006e
:104d50000087eb000ed8b900f0b79f0081bf9f001d
:104d60003d019000cd0190000c007800420e07003c
:104d70000002be005fb09700efb09700800f5200b6
:104d8000818f5a0003003a0081c0b300c1e79f0041
:104d900016003700cc5090008180fb005c509000e2
:104da0004800dd0001017000ec5090008180fb00a4
:104db0007c5090004800dd0081017000820f52009d
:104dc000838f5a0002003900a0c0b300c0e79f00e3
:104dd0003fb09700cfb09700800f5200818f5a00ec
:104de00002003900c1c3b300c1e79f00b4069800b8
:104df000c506980061045400e0845c000e51b800c0
:104e00000ed0b90003004000ffb0970081014000c0
:104e10000201450083814d00880f5100898f5900a0
:104e2000030032004fe097000004e000ccff3200a6
:104e3000cfe097000180fb004f0778004f06be00cf
:104e40004f05be004f04be000f01b1000000060078
:104e5000881f7800000478000040eb003064980060
:104e600000f22100004c78004800de001044980059
:104e7000282a0700000178001004e0000400320036
:104e800061c0b300203922000148780020003700bb
:104e9000001020001200600011003200120090008b
:104ea00001002000005c98004800de00105c9800c3
:104eb0000000eb00205c9800305c980092009000ad
:104ec00000202000808f50000500360011c2b30082
:104ed0002039220001487800100220000d00370020
:104ee000080078000d000700804078000004e00012
:104ef00007003a0008007800cc00070080407800e6
:104f00000004e00002003a0010c0b30030649800d2
:104f10000180fb004f04780000000600881f780025
:104f2000000478001080fb00184190004811dd005b
:104f3000000171006000b800c9270700e14f500070
:104f40000500320081c0b3002039220001487800fa
:104f500001407800b20037009880fb0018409000b4
:104f60004800dd0001017000e2f8930050c5b30075
:104f700080cf50006d003a00f2f89300a0cab30051
:104f800080cf500069003a006103200002007800e1
:104f90008109070061c4b300814f50002d003a0021
:104fa0009880fb00184090004800dd000100700070
:104fb000710320007809070011c4b300814f50002d
:104fc00024003a009880fb00184090004800dd0063
:104fd00001007000810320006f09070041c5b30084
:104fe000814f50001b003a009880fb001840900051
:104ff0004800dd00010070009103200066090700f1
:1050000011c3b300814f500012003a009880fb009a
:10501000184090004800dd0001007000610220008f
:105020005d09070091c2b300814f500009003a00aa
:105030000040eb0020449800304498004044980021
:105040005044980020c0b300206498000000eb009a
:10505000740037009880fb00184090004800dd0085
:1050600001007000210520004b09070061c4b30056
:10507000814f50002d003a009880fb0018409000ae
:105080004800dd00010070003105200042090700e2
:1050900011c4b300814f500024003a009880fb00f7
:1050a000184090004800dd0001007000410520001c
:1050b0003909070041c5b300814f50001b003a0079
:1050c0009880fb00184090004800dd00010070004f
:1050d000510520003009070031c3b300814f500053
:1050e00012003a009880fb00184090004800dd0054
:1050f00001007000210420002709070091c2b300bd
:10510000814f500009003a000040eb002044980015
:1051100030449800404498005044980030c0b30098
:10512000206498000000eb003e0037009880fb00f0
:10513000184090004800dd0001027000e4f8930080
:1051400050c5b30080cf500004003a00f4f893003b
:10515000a0cab30080cf50000500320041c0b300a8
:105160002039220001487800014078002c003700e7
:10517000e4c093008180fb0074c093004800dd0010
:105180000101700084c893008180fb0014c8930063
:105190004800dd0081017000224498004810de00c4
:1051a00030449800434498004818de00504498006a
:1051b00024c09300ee4f500015003e000000fb009d
:1051c000110020000009dd0000052400000061003e
:1051d00007003a00008021000000610008003a004a
:1051e0000218a3000a003200216498000c00370066
:1051f00020c0b300206498000040eb000800370096
:1052000030c0b300206498000040eb000400370079
:1052100051c0b300203922000148780001407800d5
:105220000080fb004f04780000000600ea8747007a
:10523000889fbe008a9fbe008c9fbe008e1f780094
:10524000000578001080fb001a4190004811dd0035
:10525000000171002a4290000482fb00ba419000d4
:10526000c819dd00048071004a4290000482fb00ee
:10527000da419000c819dd0084807100f82607002b
:1052800082c0b300e14f5000aa013a009a80fb00af
:105290001a4090004800dd00810570000006eb0018
:1052a0000c077800010037001c002000ebf8930089
:1052b00050c5b30080cf500023013a00fbf89300a3
:1052c000a0cab30080cf50001f013a009a80fb00b3
:1052d0001a4090004800dd0001007000e10020004d
:1052e000b0080700000478009a80fb001a40900084
:1052f0004800dd0001007000d1002000a608070072
:10530000106598006140b800f0b79f0081bf9f0012
:10531000aa4190008381fb003a4190004811dd00d2
:1053200003007100ca4190008381fb005a41900044
:105330004811dd00830071007fb197008fb997009d
:105340000000410081804900604598004801de006e
:1053500072459800014d98004808de00104d9800f5
:105360009a80fb001a4090004800dd0001007000a8
:105370000101200088080700006598009a80fb0062
:105380001a4090004800dd0001007000610120001b
:10539000840807006101b800f80f2000425d980002
:1053a0004811de00525d98008000eb00615d9800be
:1053b000715d98000000e0000e003a009a80fb004a
:1053c0001a4090004800dd000100700041022000fa
:1053d0007a08070008016000425d98004801de007d
:1053e000525d980008816000625d98004808de0008
:1053f000705d9800ea4090008180fb007a40900048
:105400004800dd00010370008a4890008180fb00a5
:105410001a4890004800dd00810370000a64900083
:105420000884fb0009002000ca5890008180fb001e
:105430005a5890004800dd0001027000ea589000c0
:105440008180fb007a5890004800dd0081027000e6
:105450000440b80005c4b90088804000060340003d
:1054600087834800f30f200003006300204d98005d
:105470004830de00304d980003806300404d9800b6
:105480004838de00504d98009a80fb001a4090008a
:105490004800dd00010070001101200041080700f4
:1054a000f20f200082006000215598004800de00c5
:1054b000305598009a80fb001a4090004800dd00ab
:1054c0000100700031012000360807006104b800b7
:1054d0000000e00007003a009a80fb001a409000ac
:1054e0004800dd00010070000102200033080700c1
:1054f0000004be009a80fb001a4090004800dd00c6
:1055000001007000b1002000260807008006780026
:105510000000e0008e0032000008a3008c003a007a
:10552000aa5090008180fb003a5090004800dd00b6
:10553000010070004500dd00008046000000e90029
:10554000110009000d80d8006101b800d2b79f009a
:10555000e3b79f000a6390000683fb00070020006a
:10556000ca5890008180fb005a5890004800dd0026
:1055700001027000ea5890008180fb007a58900088
:105580004800dd00810270000430b80005b3b900a6
:10559000868040007fb197008fb9970002004000dd
:1055a000838048005fb19700efb197000200400090
:1055b000838048000000540081805c001a619000e4
:1055c0000281fb000300200055ed07000001be0032
:1055d000f10f200001006100405598004810de00e6
:1055e0005055980001806100605598004818de0011
:1055f0007055980040ff2000800f5100e08f590047
:1056000003003e0010c0b30020659800080037007a
:10561000ec0f4100e08f590003003e0020c0b300b2
:10562000206598000200370030c0b3002065980064
:105630002a609000e34f500020003a009a80fb005f
:105640001a4090004800dd0001007000c1022000f7
:10565000da070700701c8900811c8900aa489000a5
:105660008180fb003a4890004800dd000101700095
:10567000ca4890008180fb005a4890004800dd0035
:10568000810170005fb09700efb09700000141000a
:1056900081814900f10f200001006100604d9800f8
:1056a0004810de00704d98000180610000559800a0
:1056b0004818de00105598001e0037006000b80042
:1056c000701c8900811c8900aa4890008180fb0021
:1056d0003a4890004800dd0001027000ca4890007e
:1056e0008180fb005a4890004800dd008102700074
:1056f0002a5190000281fb003a5090004800dd00e2
:10570000020070004400de0000004200e0804a0019
:10571000f30f200003016000624d98004801de0095
:10572000724d980003816000025598004808de0021
:10573000105598000041eb0000202000808f56009b
:10574000040036000200370032c0b3000100370009
:1057500012c2b3002a609000e34f500007003200ed
:105760000204e000750032002bc0900081cdb30030
:1057700001404000e14f50006e003e00bb509000e1
:105780008180fb004b5090004800dd00010070005c
:105790002c003a004b7090000004e00029003a0011
:1057a0005b7090000004e00026003a006b709000ef
:1057b0000004e00023003a007b7090000004e00049
:1057c00020003a000b7890000004e0001d003a0031
:1057d0001b7890000004e0001a003a002b7890003b
:1057e0000004e00017003a003b7890000004e0005d
:1057f00014003a004b7890000004e00011003a00d9
:105800005b7890000004e0000e003a006b78900096
:105810000004e0000b003a007b7890000004e000f8
:1058200008003a002bc0900081cdb3000140400039
:10583000e14f500003003e000204e00002003a0085
:105840003e00370032c0b3000c00e0001d003a00fb
:105850001a80fb001a4190004811dd000001710020
:10586000aa4090008180fb003a4090004800dd0093
:1058700001027000ca4090008180fb005a409000f5
:105880004800dd0081027000ab7190008381fb0055
:105890003b7090004800dd000300700000004200f3
:1058a000e0804a006e250700e14f50007efe320086
:1058b00081c0b30020392200014878008000200018
:1058c0001f0037000e00e0001a003a001a80fb00ab
:1058d0001a4190004811dd00000171002a42900039
:1058e0000482fb00ba419000c819dd0004807100f9
:1058f0004a4290000482fb00da419000c819dd00a2
:105900008480710066004000e08048005425070054
:10591000e14f500002003a001e00200063fe3700f5
:1059200081c0b300203922000148780080002000a7
:105930000300370020392200024878000280fb0073
:105940004f0778004f06be004f05be004f04be0053
:10595000af00b100000006000001780020089000b0
:1059600001002000c000dd0000002000520990006e
:105970000300200002007000838070000000060019
:10598000889fbe008a9fbe0010047800101d900002
:10599000a01d90001100780001002000885a90009e
:1059a0008582fb00185a90004822dd000501720034
:1059b000a85a90008582fb00385a90004822dd00ea
:1059c000850172004b1add004511de0002017200f4
:1059d000c519de0052ec0700804478002860900072
:1059e000e14f500016003900e24f50000900360028
:1059f000e34f500012003a000980fb00186190004c
:105a00000281fb00110009000280d8008144780067
:105a10000b003700701c8100811c8100800f550035
:105a2000818f5d00060032000980fb001861900044
:105a30000281fb00110009000280d8008144780037
:105a40000a01be0008007800ee0607009881fb00fe
:105a5000184190004811dd00030171000982fb002c
:105a6000050020000000420081804a008041eb00d8
:105a7000da2607000080fb000000e9004f00de008e
:105a80000004a2000080fb004f05be004f04be00d2
:105a9000000006000800fa00889fbe008a9fbe0032
:105aa0008c9fbe000005be000206780022609000b8
:105ab000e14f500003003200e34f50000a003a006b
:105ac00012003700f0ff2f0001002000e0b79f0018
:105ad000f1b79f0082ff20000300200082bf9f00db
:105ae00093bf9f0011003700f0ff2f00010020003e
:105af000e0b79f00f1b79f0082ff2f000300200056
:105b000082bf9f0093bf9f0008003700f0ff2f0067
:105b1000f1ff2000e0b79f00f1b79f0082ff2f0048
:105b2000f3ff200082bf9f0093bf9f00e10f55004d
:105b3000e08f5d00210036000a01be000c007800f5
:105b4000cd0a07000004be006fb09700ffb09700b9
:105b5000880f5000898f58001a003200e10f54005e
:105b6000e08f5c00150036002d0020000fb9970073
:105b70009fb99700880f5100898f590001003600a6
:105b80008006eb008040eb006022b8000a01be00f6
:105b90000c007800e30b07006fb19700ffb197008e
:105ba000800f5100818f5900060032000805be00a9
:105bb0000d00e00004003a00dfff37002d00200058
:105bc000010037001d00200011c0b3006022b800a2
:105bd0000401be000c007800d20b07000d00780015
:105be0000010a2000000ea004f00de00610010007b
:105bf0004f06be004f05be004f04be000080fa00f5
:105c000000000600ee874700889fbe008a9fbe0006
:105c10008c9fbe008e1f780000067800f1b79f00b1
:105c200082f79f001004780070129000801a900094
:105c3000101d9000a01d900011037800885890005e
:105c40008180fb00185890004800dd0001017000c1
:105c5000a85890008180fb00385890004800dd0073
:105c6000810170004b18dd004511de00020170005b
:105c7000c519de008286fb00110009000d83d800e3
:105c80008044780028609000e34f50000b003a00f9
:105c90000980fb00186190000281fb0011000900df
:105ca0000280d8008144780080ff2f00f1ff20009f
:105cb000b0b79f00c1b79f001100370080ff2f00d1
:105cc00001002000b0b79f00c1b79f00e00f520055
:105cd000e08f5a000a0032000980fb001861900032
:105ce0000281fb00110009000280d8008144780085
:105cf00080ff2f0001002000b0b79f00c1b79f00b8
:105d00008ff097000104e00002003a006f0063008a
:105d100082003a000904e00002003a008d0f5300af
:105d2000030031000ff097000004e0001d00320076
:105d3000e00f5200e08f5a0002003a000405be0056
:105d4000180037008ff097000104e00008003200cf
:105d5000186190000281fb0002e9b90011000900fe
:105d60000283d80000017800024778000b0037005a
:105d70001ec0b3000a01be00080078003e0a0700fa
:105d80000005be003fb29700cfb29700800f5200cf
:105d9000818f5a00030036000e47e9000e04e00030
:105da000f4ff3a003fb09700cfb09700800f550046
:105db000818f5d00540031001a1e98002b1e980040
:105dc0000a01be00080078000e060700d0b79f0049
:105dd000e1b79f00701c8100811c8100800f55007d
:105de000818f5d0017003a000982fb00050020004a
:105df0005fb09700efb097000002420081824a0036
:105e0000e84890008180fb00784890004800dd0061
:105e100001017000885090008180fb0018509000b4
:105e20004800dd0081017000820f5200838f5a000c
:105e300004003900286090000001eb00e34f50009f
:105e400041003a00804f22001004e00004003200bc
:105e5000780707000001eb000004e0003a003a0078
:105e60000005eb009a278900a04f22000a4878001d
:105e70001880fb00184190004811dd0000017100fe
:105e80000980fb00010020005fb29700efb297008d
:105e90000400400085804800f1230700e14f5000d6
:105ea000020032000a017800120037008ff29700da
:105eb0000504e0000b0032001880fb001841900040
:105ec0004811dd0000017100ffb09700110078005b
:105ed000110009000d80d800c508dd000101410056
:105ee000040037009880fb00184090004800dd0057
:105ef000010170000080eb008080eb00a02789008a
:105f0000b12789001000370011c0b300904f220064
:105f1000014878000001eb000b0037001880fb00ff
:105f200098409000c808dd0080807000811f7800d4
:105f3000110009000d83d80001007800cf0078001f
:105f40004500dd0000814000020078004f07780026
:105f50004f06be004f05be004f04be00ef00b1006b
:105f600000000600889fbe008a9fbe008004780063
:105f7000010478000245780083057800203922006a
:105f80000048eb008008eb000900780035000700ae
:105f9000410120000004e0000c0032000a417800ba
:105fa0008800780009007800730007008080fb00fb
:105fb0000004e00005003a000b00e000030032009e
:105fc00009007800070007008000780020392200cf
:105fd00001487800010078004f05be004f04be0064
:105fe000000006000600fa00889fbe0080047800ca
:105ff00040109000d0bf9f00ea8057000900780051
:10600000f3040700800078000000e00011003a006f
:106010006684570088007800090078007202070043
:10602000bfb8970051089800cfb89700f2ff200042
:1060300082806000210898008800780009007800bc
:106040004ffe070091002000e14f500001003a0090
:106050008000eb00010078004f04be000080fa00d1
:1060600000000600889fbe008a9fbe000004be009c
:106070008018900070109000101c9800211c98004f
:1060800012c0b3000800be00defe07000045eb00b2
:106090000000e00025003a002b0037001045780092
:1060a000990ce8000000e00005003200fb4f4500bd
:1060b000270032000a04e000250032001b003700f0
:1060c00018199000a8199000701c8100811c810093
:1060d000800f5100818f59000c003a0018007800a1
:1060e00020609000e34f50001b003a0032049800fb
:1060f0004304980011c0b300080078006200070054
:10610000f54f500012003a00130037003204980097
:106110004304980011c0b300080078005a0007003b
:10612000f54f50000a003a000b003700990578003f
:106130000041eb000800be00b2fe07000000e000d6
:10614000d6ff3a00d6ff37000000eb00070037000b
:106150008040eb000100370021c0b3008b0c7800b9
:10616000100020000104e000f7ff3a004f05be00d8
:106170004f04be0000000600889fbe008a9fbe003c
:10618000800478000105780082457800801890002e
:1061900070109000901c9800a11c980012c0b300d1
:1061a0008a0078000900780096fe07000004780055
:1061b000b00120000800e00030003200fc80440004
:1061c000b200200008007800eced0700f2cf550087
:1061d00003003a0000c1b300304c980002003700c1
:1061e00000c2b300304c98000040eb00404c9800d7
:1061f0000000eb00200c9800500c98006011b800d3
:10620000620c9800730c980020cbb300504c98009f
:106210008027270070049800012b2300010c9800b0
:10622000110c98000000e800300c9800410c980018
:10623000920c9800a30c9800f8009000c10c9800f4
:1062400008089000d00c9800384890000080fb00af
:10625000e01498009a007800c11498008a00780031
:1062600009007800c6fd070091c0b300e14f50005f
:1062700001003a008040eb000180fb004f05be00aa
:106280004f04be0000000600889fbe008a9fbe002b
:106290008c1f780000057800014678009005780092
:1062a000310007000004be0050012000e00f540040
:1062b000e08f5c00280032002b609000e14f50001e
:1062c00007003a008040eb0084ff2000050020001a
:1062d0000801be000b007800120a07000f0037000b
:1062e000e24f500007003a008040eb0084ff2f008f
:1062f000050020000801be000b007800090a070015
:10630000060037008040eb0084ff2f00f5ff2000df
:106310000801be000b007800020a07003a01900055
:10632000ca0190008040eb000802be000b0078001c
:10633000fc09070038059800490598000000eb00ab
:10634000e14f560004003a000801be000b0078003f
:10635000520407000080fb004f0678004f05be0086
:106360004f04be00000006000800fa00889fbe002f
:106370008a9fbe008c1f78001006780030059000c0
:10638000c00590002c609000e14f500003003200e7
:10639000e34f50000a003a001200370070ff20005f
:1063a0000100200090bf9f00a1bf9f00f2ff2f00bf
:1063b00003002000f2b79f0083bf9f001100370049
:1063c00070ff2f000100200090bf9f00a1bf9f0021
:1063d000f2ff2f0003002000f2b79f0083bf9f0051
:1063e0000800370070ff2f00f1ff200090bf9f00d2
:1063f000a1bf9f00f2ff2f00f3ff2000f2b79f0024
:1064000083bf9f00e10f5500e08f5d0002003e005a
:106410002a0020000b0020000a01be000c007800ba
:1064200095080700e00f5500e08f5d0002003a007c
:106430000a04be002c0037000a04be000801be009a
:106440000c0078008c0807007fb197008fb9970087
:10645000800f5100818f590022003200e00f500060
:10646000e08f58002000320061044400e0844c00ba
:106470001fb99700afb99700800f5100818f590065
:106480000f003200cc5090008180fb005c509000e7
:106490004800dd0001017000ec5090008180fb009d
:1064a0007c5090004800dd008101700062014100d5
:1064b000e0814900820f5400838f5c0002003900a4
:1064c0002800200009002000880f5500898f5d00fa
:1064d00004003200e00f5400e08f5c000200320044
:1064e000d6ff37006044b8000800be004f067800b1
:1064f0004f05be004f04be000080fa0000000600f9
:106500000200fa00889fbe00800478002039220033
:106510000048eb0049109000d0bf9f003908900060
:10652000830420000008a3003e003200804f2200b8
:106530001004e00008003200be0507000004e0007f
:106540000500320091c0b3002039220001487800d4
:106550008081eb003f00370011c0b3006022b8001b
:106560000401be00190078006e0907006000b80041
:10657000602789007127890039019000c9019000c6
:10658000190078003c080700e680570009007800f1
:1065900015010700000478000000e00005003a0043
:1065a000b1c1b30020392200014878008081eb009e
:1065b000280037006d00070019089000a908900016
:1065c000600c9800710c9800c9689000314c9800dc
:1065d000e680570009007800e9fc07000004e000ad
:1065e00009003200e680570009007800fe0007002d
:1065f0008001eb000800370011c0b300c038220052
:10660000017178000f00370091c0b30020392200db
:10661000014878008081eb00390890000000a1005b
:10662000b00c98000001eb0000322200808f540073
:10663000f1ff32000201e8006003b000e20f5100f8
:10664000faff3a0080042000808f510001003a00d8
:106650008001eb00030078004f04be000080fa00c8
:10666000000006000200fa00881f7800000478008d
:10667000203922000048eb0048109000e0bf9f0046
:10668000380890006100600035003200804f220021
:106690001004e00008003200660507000004e00076
:1066a0000500320091c0b300203922000148780073
:1066b0000080eb002a00370011c0b3006022b80050
:1066c0000401be0018007800160907006000b80039
:1066d000602789007127890038019000c801900067
:1066e00018007800e4070700e480570008007800ed
:1066f000bd0007000000e00005003a00b1c1b30092
:1067000020392200014878000080eb001400370097
:1067100018099000a8099000620898007308980072
:10672000c869900033489800e4805700080078005a
:1067300093fc07000004e00005003200e4805700ed
:1067400008007800a80007000000eb0004003700f4
:1067500091c0b30020392200014878000080eb008e
:106760004f0478000080fa0000000600881f7800bf
:1067700000037800300890007f426000c500de0012
:10678000f3c3b30003c16000cb01de0046089000f4
:10679000ff42600080007800011eb200c50bde00e1
:1067a0004904de00fc4f520002003e000440e800b5
:1067b00021003700a0c3b300804f510003003e000a
:1067c0000241e8000040eb001b003700f6cf51000b
:1067d00004003e008341e8000040eb0000417800e7
:1067e00015003700fdcf520005003e008542e8004d
:1067f0000040eb0000417800804178000e00370037
:10680000ebcf530006003e008743e8000040eb005a
:10681000004178008041780015c0b30006003700c1
:106820000844e8000040eb00004178008041780017
:1068300015c0b300854378008080fb000280fb0018
:106840004500dd00808070004b18dd008080700006
:10685000310b98008580fb000780fb004500dd00c0
:10686000808070004940dd0080807000410b9800fe
:106870004f04780000000600889fbe008a9fbe007b
:106880008c9fbe008e1f78000006780001077800fc
:10689000910078006f8060000c003a000100e00079
:1068a0000a0032007c1090008c189000101e980096
:1068b000211e980012c0b3008e0078000c007800f2
:1068c000d0fc070080057800050037000041eb0090
:1068d0008e0078000c007800cafc07008005780064
:1068e0000b00e000390032001b40780018c0b300f4
:1068f000fb4f4000360032000004e000330032005d
:106900008b0478007c0446000045eb003980fb00d6
:106910000ce70700005c78000a45e800e84f5500e6
:10692000faff3a00e88645008004eb000944450080
:106930000884fb007c0444000c0444003d80fb0000
:1069400000e70700004c78008904e800e38f54005a
:10695000f6ff3a001e0778004e16980050ceb3009e
:106960001b4068000080fb000000e9004f04de00cf
:106970006b089000fb089000100e9800210e980004
:106980000b007800f4fb0700100698002106980021
:106990003b4890000080fb00601698000048a30070
:1069a00005003200fb009000410e98008b0d900016
:1069b0005b0e9800060037003b089000400e9800e0
:1069c000cb0d90005b0e98000100370028c0b3008b
:1069d0000880fb004f0778004f06be004f05be0041
:1069e0004f04be0000000600889fbe000004be00e9
:1069f0008018900070109000101c9800211c9800c6
:106a000012c0b3000800be007efc070080007800c2
:106a10000000e00013003200104078000004e000a5
:106a200012003200fb4f400010003200314890004d
:106a3000ef4f50000e003a00990ce8000041eb00c7
:106a40000800be006ffc0700800078000000e00036
:106a50000400320030489000ef4f500004003a002c
:106a6000f5ff37008000eb00010037008000eb00ed
:106a7000010078004f04be0000000600889fbe00a1
:106a80008a9fbe008c1f7800800478000105780082
:106a9000824578001006780012c0b3002039220029
:106aa000024878007910900089189000901c980096
:106ab000a11c98008a0078000900780051fc0700aa
:106ac00000047800b10120000000e0002500320041
:106ad000104078000004e00021003200fb4f40002d
:106ae0001f00320050ceb300004c78008a007800be
:106af00009007800a2fb0700110020000004e0005c
:106b0000180032000800780093fb07000002be0066
:106b10001a0de900701c8100811c8100840f500057
:106b2000858f58000a0032000b04e0000800320094
:106b30000c0178000400be00d6fb07008000eb00cb
:106b40000004e00003003a001100200001003700bb
:106b50008000eb0020392200014878000100370056
:106b6000b1002000010078004f0678004f05be00fc
:106b70004f04be00000006006e00fa00889fbe00b1
:106b80008a9fbe00800478008105780028392200a1
:106b9000004ceb00ad2207000004e00004003200ce
:106ba00080c1b300004c78008080eb0048003700c3
:106bb000c0f82f00008447008b00780008007800a0
:106bc000fc0107000041eb00880078000900780014
:106bd0000d0507000004e00005003a0021c1b300e4
:106be00020392200014878008080eb00380037000f
:106bf000c2f82f00028547008004eb00a99f9f0088
:106c0000e02781007011900080199000d29f9f00b2
:106c1000e39f9f0010199000a0199000f29f9f0021
:106c200083a79f0028fc2f00088447008a00780073
:106c300008007800df0107008941780012c0b30026
:106c40008a0078000800780009f70700eb0f500071
:106c50001b003a00cb119000d3879f00a1f82f00b2
:106c60008f8040000b0078005fff07007c814500ab
:106c700083fa2f0083804700eb8141008381470026
:106c80001159780031587800838f5000fcff3a008a
:106c9000a1f82f008f8040000b00780038fb070020
:106ca0008000eb000004e00009003a0091c0b3004e
:106cb00020392200014878008080eb000400370072
:106cc00011c1b30020392200014878008080eb0018
:106cd000010078004f05be004f04be000080fa009e
:106ce000000006000200fa00889fbe008a9fbe00d6
:106cf0008c9fbe0080017800010678000005eb0043
:106d0000c13822006ac078000004e00008003200a8
:106d10000040eb0000f578006003200000d0b900cf
:106d2000023222008004410009003a0003003700cb
:106d30000a05e800e20f5500f2ff3a0001c2b30075
:106d400020392200014878008004eb002c01370034
:106d50000041eb008900780003007800aa040700d6
:106d60000004e00008003a0011c0b300c03822005f
:106d70000175780021c1b300203922000148780054
:106d80008004eb001e0137009c457800c0432200c0
:106d9000800c78006000b80090049800a10498006e
:106da000b0049800c10498000004eb00c8149800d7
:106db00000022000e0149800701c8100811c8100fa
:106dc000f0149800811c9800701c8100811c8100c7
:106dd000901c9800a11c980089007800003d2200ba
:106de000740107008841780012c0b300013d220001
:106df000090078009ef607000000e000b8003a00a5
:106e000070c5b30080cf55001200320007003e006d
:106e10007640500080cf55003b003200714040006a
:106e200080cf5500a9003a009600370020c7b30074
:106e300080cf5500930032006540400080cf550060
:106e4000040032007640500080cf55009f003a0089
:106e50002d003700c910900091bf9f0012c0b300f1
:106e6000ee8057000900780004ff07000004780056
:106e70000000e000d3003a00130020000041780039
:106e8000ee8057000900780036fc07000004780007
:106e90000000e000cb003a0072c7b300ee8057005c
:106ea0000900780015f707000004780069109000c9
:106eb0000048a30005003200f1c1b30020392200d0
:106ec00001487800f80f2000be0037000800e000fd
:106ed000bc003a00210020006011b80009007800d1
:106ee00023050700000478009c409000b0c2b30066
:106ef00080cf5000b3003a00390890000010a00085
:106f0000b00c9800af00370019089000a908900055
:106f1000e00f5000e08f5800280032004910900028
:106f200090bf9f0072c7b300ee8057000900780041
:106f3000f2f6070000047800691090000048a300f2
:106f400005003200f1c1b300203922000148780069
:106f5000f80f20009b0037000800e00099003a007d
:106f6000210020006011b80009007800000507002a
:106f7000000478000000e00004003200a1c1b3006a
:106f800020392200014878000400370039019000c0
